:020000040800F2
:100000004004002045010008150B00080D0B0008F6
:10001000110B0008510800087D0F000800000000C7
:10002000000000000000000000000000450C000877
:10003000F509000800000000170B0008850D0008F6
:100040005F0100085F0100085F0100085F01000810
:100050005F0100085F0100085F0100085F01000800
:100060005F0100085F0100085F0100085F010008F0
:100070005F0100085F0100085F0100085F010008E0
:100080005F0100085F0100085F0100085F010008D0
:100090005F0100085F0100085F0100085F010008C0
:1000A0005F0100085F0100085F0100085F010008B0
:1000B0005F0100085F0100085F0100085F010008A0
:1000C0005F0100085F0100085F0100085F01000890
:1000D0005F0100085F0100085F0100085F01000880
:1000E0005F0100085F0100085F0100085F01000870
:1000F0005F0100085F0100085F0100085F01000860
:100100005F0100085F0100085F0100085F0100084F
:100110005F0100085F0100085F0100085F0100083F
:100120005F0100085F0100085F0100085F0100082F
:10013000DFF80CD000F0D4F9004800473110000877
:10014000400400200648804706480047FEE7FEE7D7
:10015000FEE7FEE7FEE7FEE7FEE7FEE7FEE7FEE777
:10016000890D00083101000830B480EA010202F074
:10017000004530F0004221F0004013D090B1C30D93
:10018000D40DC2F31601C0F31600E41A41F40001C5
:1001900040F400027D34914201D3641C00E0490028
:1001A000002C02DA30BC002070474FF4000000231E
:1001B000914201D3891A034340084FEA4101F7D124
:1001C00051B1914202D14FF0004105E002D24FF00F
:1001D000010101E06FF0010103EBC450284430BC81
:1001E00000F0EAB82DE9FE4F81EA030404F0004470
:1001F00021F0004100944FF0000B23F0004350EA3F
:1002000001045ED052EA03045BD0C3F30A54C1F385
:100210000A552C44A4F2F3340194A0FB0254C1F318
:10022000130141F48011C3F3130343F4801301FB62
:10023000024400FB034E840A970A44EA815447EAC9
:100240008357A4FB076802958D0A05FB07854FEAD3
:10025000932C04FB0C542705029D4FEA065847EAED
:100260001637B5EB08056EEB070C870E920E47EAC2
:10027000811742EA8312A7FB0201B6EB0B0164EB84
:1002800000042B0D43EA0C335E1844EB1C50DA4695
:100290005146E7FB0201C5F313044FEA0B3343EA6F
:1002A00014534FEA0432019C43EA0603A4F10C0400
:1002B0000294009CCDE900B400F0C4F803B0BDE89E
:1002C000F08F00200146F9E796230022114600F046
:1002D0007CB800F0004230F000400AD0C10D01F5BA
:1002E0006071C0F3160042EA0151C2084007114391
:1002F000704700200146704730B5041E71F10004BC
:1003000004DB4FF00044404264EB0101141E73F122
:10031000000405DB1C464FF00043524263EB04032C
:100320008B4208BF824230BD30B5041E71F100041B
:1003300004DB4FF00044404264EB0101141E73F1F2
:10034000000405DB1C464FF00043524263EB0403FC
:10035000994208BF904230BD01F0004330B421F013
:10036000004150EA010206D00A0DA2F56072C1F305
:100370001301002A02DC30BC00207047440F44EA1D
:10038000C104C100E01830BC00EBC25000F014B84A
:10039000002801DBC0F10040002901DBC1F1004170
:1003A00081427047002801DBC0F10040002901DBD9
:1003B000C1F10041884270470029A8BF7047401C26
:1003C000490008BF20F00100704710B4B0FA80FC6B
:1003D00000FA0CF050EA010404BF10BC704749B1A8
:1003E000CCF1200421FA04F411FA0CF118BF012118
:1003F00021430843A3EB0C01CB1D4FEA00614FEAF8
:10040000102042BF002010BC704700EBC3501044C6
:100410000029A4BF10BC7047401C490008BF20F051
:10042000010010BC704710B5141E73F1000408DA07
:10043000401C41F1000192185B411A4301D120F0A8
:10044000010010BD2DE9F04D92469B4611B1B1FA65
:1004500081F202E0B0FA80F22032904600F052F8C9
:1004600004460F4640EA0A0041EA0B0153465A4649
:10047000084313D0114653EA010019D0C8F14002D5
:10048000504600F04EF805460E4650465946424644
:1004900000F038F8084305D0012004E02046394632
:1004A000BDE8F08D0020054346EAE0762C43374353
:1004B0000A986305E40AA0EB08000022FD0A44EA5A
:1004C00047540A3002D500200146E9E7010510191A
:1004D0006941DDE9084500196941BDE8F04DA2E731
:1004E000064C074D06E0E06840F0010394E8070081
:1004F00098471034AC42F6D3FFF71EFED013000825
:10050000F0130008202A04DB203A00FA02F1002050
:1005100070479140C2F1200320FA03F31943904041
:100520007047202A04DB203A21FA02F000217047AC
:1005300021FA02F3D040C2F120029140084319464B
:10054000704721B1826842F00102826003E0826854
:1005500022F001028260704721B1826842F4807209
:10056000826003E0826822F48072826070470146F4
:1005700000208A6802F004020AB1012000E0002095
:100580007047014600208A6802F008020AB1012083
:1005900000E000207047000030B502460020002334
:1005A00050680F4C20400D790C6844EA0524204324
:1005B000506090680B4C2040D1E902542C434D7997
:1005C00044EA450420439060D06A20F470000C7C1B
:1005D000641EE4B2234340EA0350D06230BD000001
:1005E000FFFEF0FFFDF7F1FFF0B504460D460020D9
:1005F0000021092D11DDE068A5F10A0606EB46078A
:10060000072606FA07F18843A5F10A0606EB460617
:1006100003FA06F10843E0600CE0206905EB4507AA
:10062000072606FA07F1884305EB450603FA06F1AB
:1006300008432061072A0FDA606B561E06EB860717
:100640001F2606FA07F18843561E06EB860605FAB2
:1006500006F10843606322E00D2A0FDA206BD61FF3
:1006600006EB86071F2606FA07F18843D61F06EB1E
:10067000860605FA06F10843206310E0E06AA2F15D
:100680000D0606EB86071F2606FA07F18843A2F13E
:100690000D0606EB860605FA06F10843E062F0BD9A
:1006A000816841F008018160704721B1826842F49D
:1006B000A002826003E0826822F4A0028260704798
:1006C000816841F0040181607047000008B5012194
:1006D000102000F03DFA0120ADF800000220ADF836
:1006E00000000420ADF800000820ADF80000102044
:1006F000ADF800002020ADF8000000208DF80300C8
:100700006946024800F077F908BD0000001001407A
:1007100010B5FFF7DBFF00F001F810BD00B591B098
:100720000121084600F004FA464800F09FF84648C8
:100730000690464807900020089006200990002067
:100740000A9080200B9040000C9080000D9020209B
:100750000E9000020F900020109006A9394800F07A
:100760002BF90121374800F075F80121480200F00B
:10077000EFF90020019001208DF808008DF80900A4
:100780004FF4602003900020049006208DF81400A0
:1007900001A92D484C38FFF7FFFE4FF4404000F010
:1007A000BBF9052301220A2127484C38FFF71CFF1B
:1007B000052302220B2124484C38FFF715FF05239F
:1007C00003220C2120484C38FFF70EFF052304229A
:1007D0000D211D484C38FFF707FF05231A460E214F
:1007E00019484C38FFF700FF052306220F21164851
:1007F0004C38FFF7F9FE012113484C38FFF7ACFEE7
:10080000012111484C38FFF79CFE0F484C38FFF788
:1008100047FF00BF0C484C38FFF7B3FE0028F9D162
:1008200009484C38FFF74CFF00BF07484C38FFF72A
:100830009EFE0028F9D1012103484C38FFF735FF0F
:1008400011B000BD080002404C24014030000020DF
:1008500000BFFEE721B1026842F00102026004E03D
:1008600002684FF6FE731A400260704701684FF647
:10087000FE72114001600021016041608160C16031
:100880004B49884208D14A490839496841F00F016B
:10089000474A083A51608AE045491431884208D1F4
:1008A00043490839496841F0F001414A083A51602A
:1008B0007DE03F492831884208D13D4908394968DF
:1008C00041F470613A4A083A516070E038493C316D
:1008D000884208D136490839496841F47041344AA0
:1008E000083A516063E032495031884208D13049BA
:1008F0000839496841F470212D4A083A516056E0A0
:100900002B496431884208D129490839496841F4A2
:100910007001274A083A516049E0254978318842F8
:1009200008D123490839496841F07061204A083AE2
:1009300051603CE01F49884206D1011F096841F01F
:100940000F01021F116032E01A491431884208D1A8
:100950001849091F096841F0F001164A121F116079
:1009600025E014492831884208D11249091F096835
:1009700041F470610F4A121F116018E00D493C31BB
:10098000884208D10B49091F096841F47041094A9E
:10099000121F11600BE007495031884207D1054909
:1009A000091F096841F47021024A121F1160704743
:1009B000080002400804024010B50022026847F611
:1009C000F0739A430C6A8B6823430C6923434C6988
:1009D00023438C692343CC6923434C6A23438C6AA9
:1009E00023431A430260CB6843600B6883604B6803
:1009F000C36010BD70472DE9F04102460025002676
:100A0000002000230024002791F803C00CF00F05FC
:100A100091F803C00CF0100CBCF1000F03D091F85A
:100A200002C04CEA050591F800C0BCF1000F31D0BE
:100A3000146800202BE04FF0010C0CFA00F3B1F821
:100A400000C00CEA03069E4220D183004FF00F0C39
:100A50000CFA03F7BC4305FA03FC4CEA040491F8D2
:100A600003C0BCF1280F06D14FF0010C0CFA00FCBA
:100A7000C2F814C00AE091F803C0BCF1480F05D1D8
:100A80004FF0010C0CFA00FCC2F810C0401C082802
:100A9000D1D31460B1F800C0BCF1FF0F34DD54684D
:100AA00000202EE000F1080C4FF0010808FA0CF3CA
:100AB000B1F800C00CEA03069E4221D183004FF03A
:100AC0000F0C0CFA03F7BC4305FA03FC4CEA0404D0
:100AD00091F803C0BCF1280F05D100F1080C08FA09
:100AE0000CF8C2F8148091F803C0BCF1480F07D18C
:100AF00000F1080C4FF0010808FA0CF8C2F8108059
:100B0000401C0828CED35460BDE8F08100BFFEE74A
:100B100000BFFEE77047704701460020034A506857
:100B200020F440400843506070470000001002402D
:100B300029B1064A52690243044B5A6104E0034A50
:100B400052698243014B5A61704700000010024015
:100B500029B1064A92690243044B9A6104E0034AB0
:100B600092698243014B9A61704700000010024075
:100B700030B500210022002400232D4D6D6805F0C2
:100B80000C0121B1042905D0082923D105E0294D04
:100B9000056022E0274D05601FE0254D6D6805F4D6
:100BA0007012234D6D6805F48034022505EB9242E6
:100BB0001CB9214D554305600BE01D4D6D6805F4D2
:100BC00000351DB11C4D5543056002E0194D5543DC
:100BD000056002E0174D056000BF00BF144D6D6851
:100BE00005F0F0010909154D6B5C0568DD404560B5
:100BF0000F4D6D6805F4E061090A104D6B5C4568A6
:100C0000DD4085600A4D6D6805F46051C90A0B4DE1
:100C10006B5C4568DD40C560054D6D6805F440417D
:100C2000890B074D6B5CC568B5FBF3F5056130BDFD
:100C30000010024000127A0000093D000000002070
:100C400010000020704710B500F002F810BD000041
:100C50000CB50020019000903348006840F48030CB
:100C60003149086000BF3048006800F4003000904F
:100C70000198401C0190009818B90198B0F5A06F38
:100C8000F1D12948006800F4003010B10120009033
:100C900001E0002000900098012843D1234800681B
:100CA00040F01000214908600846006820F0030069
:100CB00008600846006840F0020008601A48406872
:100CC000194948600846406848600846406840F452
:100CD000806048600846406820F47C104860084600
:100CE000406840F4E81048600846006840F08070B2
:100CF000086000BF0C48006800F000700028F9D0C0
:100D00000948406820F003000749486008464068E9
:100D100040F00200486000BF0348406800F00C004B
:100D20000828F9D10CBD000000100240002002404C
:100D300030B50146B1F1807F01D3012030BD21F0F3
:100D40007F40401E4FF0E022506150170F220028D4
:100D500007DA13071D0E094B00F00F04241F1D5561
:100D600003E013071C0E064B1C5400BF00204FF07D
:100D7000E0229061072010610020DFE718ED00E01D
:100D800000E400E07047000010B51348006840F030
:100D900001001149086008464068104908400E49A2
:100DA0004860084600680E4908400B49086008463C
:100DB000006820F4802008600846406820F4FE00A7
:100DC00048604FF41F008860FFF73DFF4FF0006060
:100DD0000449086010BD0000001002400000FFF848
:100DE000FFFFF6FE08ED00E021B1828942F40052D7
:100DF000828104E082894DF6FF731A408281704738
:100E000000B585B001210420FFF7A2FE012188036F
:100E1000FFF79EFE4FF40070ADF8100018208DF81B
:100E2000130003208DF8120004A91348FFF7E3FD17
:100E30004FF48060ADF8100004208DF8130004A971
:100E40000D48FFF7D8FD4FF4E13000900020ADF8D9
:100E50000400ADF80600ADF80800ADF80C000C2059
:100E6000ADF80A006946054800F018F8012103486A
:100E7000FFF7BAFF05B000BD00080140003801408F
:100E800002460020B1F5007F00D100BF13880B405F
:100E90000BB1012000E00020704700002DE9F04771
:100EA00086B005460E460024A24600BFA146002794
:100EB000B08900B100BF2F462C8A4CF6FF70044069
:100EC000F08804432C82AC894EF6F3100440B088BD
:100ED00031890843718908430443AC81AC8A4FF6D9
:100EE000FF400440B0890443AC8201A8FFF740FEF4
:100EF0001F48874202D1DDF810A001E0DDF80CA008
:100F0000A88900F4004040B10AEBCA0000EB0A10C7
:100F100031684900B0FBF1F807E00AEBCA0000EBCA
:100F20000A1031688900B0FBF1F86420B8FBF0F0DA
:100F300004012009642101FB1089A88900F4004004
:100F400040B1322000EBC900B0FBF1F000F0070027
:100F5000044308E0322000EB09106421B0FBF1F0FB
:100F600000F00F0004432C8106B0BDE8F0870000BC
:100F700000380140C1F308028280704700BFFEE7DD
:100F8000014A024900F013B80D10000814000020B7
:100F900002E008C8121F08C1002AFAD17047704742
:100FA000002001E001C1121F002AFBD170472DE98A
:100FB000F04116460F460446002503E03946B04787
:100FC000641C6D1C20780028F8D12846BDE8F0810B
:100FD00070B504460C48FFF7ABFE002508E000BFE3
:100FE0004FF0E020006900F480300028F8D06D1C3C
:100FF000A542F4D34FF0E020006920F001004FF04B
:10100000E021086170BD00004019010070B5044680
:101010000D46E1B20548FFF7ADFF00BF8021034850
:10102000FFF72EFF0028F9D0204670BD00380140A0
:101030000024A146FFF7E4FEFFF76AFB7BE1BE490F
:101040000888FFF741F983464FF08B41FFF78CF892
:101050008246FFF73EF907464FF06632B74BFFF77F
:10106000C1F80546FFF778F9B5490860B2494888E4
:10107000FFF72AF983464FF08B41FFF775F8824658
:10108000FFF727F907464FF06632AC4BFFF7AAF897
:101090000546FFF761F9AA49486008464468D0F858
:1010A00000902046FFF715F905464FF03332A54B67
:1010B000FFF73AF91FD22046FFF70BF905464FF02C
:1010C0006632A14BFFF718F915D24846FFF701F930
:1010D00005469E4A9E4BFFF727F90CD24846FFF77C
:1010E000F8F805469B4A9C4BFFF706F903D29BA0F4
:1010F000FFF746FF1BE12046FFF7EBF80546934A52
:10110000994BFFF711F91FD22046FFF7E2F8054689
:101110004FF03332954BFFF7EFF815D24846FFF703
:10112000D8F80546894A8A4BFFF7FEF80CD24846A4
:10113000FFF7CFF80546874A874BFFF7DDF803D264
:101140008BA0FFF71DFFF2E000212046FFF72AF9F0
:1011500018D22046FFF7BDF805467C4A864BFFF7BC
:10116000CBF80FD24FF07E514846FFF71BF909D25A
:101170004FF080414846FFF70BF903D27FA0FFF7FD
:10118000FFFED4E02046FFF7A4F805464FF03332C7
:101190007C4BFFF7C9F817D24FF080412046FFF78C
:1011A000F7F811D200214846FFF7FCF80CD2484668
:1011B000FFF78FF80546654A734BFFF79DF803D29A
:1011C00072A0FFF7DDFEB2E02046FFF782F8054689
:1011D0004FF033325B4BFFF7A7F820D22046FFF7E2
:1011E00078F805464FF06632574BFFF785F816D270
:1011F0004846FFF76EF80546544A5B4BFFF794F8F4
:101200000DD24846FFF765F805464FF03332574B8D
:10121000FFF772F803D25FA0FFF7B2FE87E05F49E5
:101220002046FFF7BFF81BD22046FFF752F80546CD
:101230004FF033324D4BFFF75FF811D20021484693
:10124000FFF7B0F80CD24846FFF743F805463F4A8F
:101250004D4BFFF751F803D251A0FFF791FE66E026
:1012600000212046FFF79EF817D22046FFF731F8FD
:101270000546364A404BFFF73FF80ED2002148465C
:10128000FFF790F809D24FF07E514846FFF780F8FB
:1012900003D246A0FFF774FE49E02046FFF719F895
:1012A00005462A4A304BFFF73FF820D22046FFF789
:1012B00010F805464FF033322C4BFFF71DF816D2CD
:1012C0004846FFF706F80546204A274BFFF72CF85B
:1012D0000DD24846FEF7FDFF05464FF03332234B53
:1012E000FFF70AF803D234A0FFF74AFE1FE00021FF
:1012F0002046FFF757F81AD22046FEF7EAFF0546C8
:10130000124A1D4BFEF7F8FF11D224494846FFF759
:1013100049F80CD24846FEF7DCFF05464FF0333261
:10132000124BFEF7E9FF02D226A0FFF729FE4FF489
:10133000FA70FFF74DFE82E63000002066660A4034
:10134000180000203333FB3F6666FE3F9A99999957
:101350009999F93FCDCCCCCCCCCCFC3FD5FDB3A3F7
:10136000D0D0CABB0A0000009999094033330B4022
:10137000C7B0BDF80A0000009999B93FBAF3CDCBC8
:101380000A0000003333F33F9999C93FCFF2D7F3F6
:101390000A000000CFF2D3D20A0000000000404053
:1013A000CFF2D7F3C7B0B7BD0A000000CFF2D7F332
:1013B000BAF3B7BD0A000000CFF2D3D2C7B0B7BDB1
:1013C0000A000000CFF2D3D2BAF3B7BD0A00000082
:1013D000F01300080000002018000000900F000823
:1013E000081400081800002028040000A00F0008BE
:1013F00000000000010203040102030406070809BB
:081400000204060800000000D0
:0400000508000131BD
:00000001FF
