:020000040800F2
:100000002004002045010008DD020008D502000898
:10001000D9020008B90100080D0D00080000000019
:100020000000000000000000000000007D04000847
:10003000BD01000800000000650300086905000814
:100040005F0100085F0100085F0100085F01000810
:100050005F0100085F0100085F0100085F01000800
:100060005F0100085F0100085F0100085F010008F0
:100070005F0100085F0100085F0100085F010008E0
:100080005F0100085F0100085F0100085F010008D0
:100090005F0100085F0100085F0100085F010008C0
:1000A0005F0100085F0100085F0100085F010008B0
:1000B0005F0100085F0100085F0100085F010008A0
:1000C0005F0100085F0100085F0100085F01000890
:1000D0005F0100085F0100085F0100085F01000880
:1000E0005F0100085F0100085F0100085F01000870
:1000F0005F0100085F0100085F0100085F01000860
:100100005F0100085F0100080D0800085F0100089A
:100110005F0100085F0100085F0100085F0100083F
:100120005F0100085F0100085F0100085F0100082F
:10013000DFF80CD000F02EF800480047C90E000888
:10014000200400200648804706480047FEE7FEE7F7
:10015000FEE7FEE7FEE7FEE7FEE7FEE7FEE7FEE777
:100160006D0500083101000830B50B46014600203E
:100170002022012409E021FA02F59D4205D303FA69
:1001800002F5491B04FA02F52844151EA2F10102EA
:10019000F1DC30BD064C074D06E0E06840F001039D
:1001A00094E8070098471034AC42F6D3FFF7C4FF39
:1001B0006C0F00088C0F000800BFFEE770472DE9A8
:1001C000F0410246002500260020002300240027DD
:1001D00091F803C00CF00F0591F803C00CF0100C5F
:1001E000BCF1000F03D091F802C04CEA050591F86C
:1001F00000C0BCF1000F31D0146800202BE04FF09C
:10020000010C0CFA00F3B1F800C00CEA03069E42A0
:1002100020D183004FF00F0C0CFA03F7BC4305FA12
:1002200003FC4CEA040491F803C0BCF1280F06D18A
:100230004FF0010C0CFA00FCC2F814C00AE091F86F
:1002400003C0BCF1480F05D14FF0010C0CFA00FCC3
:10025000C2F810C0401C0828D1D31460B1F800C007
:10026000BCF1FF0F34DD546800202EE000F1080CD3
:100270004FF0010808FA0CF3B1F800C00CEA0306CD
:100280009E4221D183004FF00F0C0CFA03F7BC43C0
:1002900005FA03FC4CEA040491F803C0BCF1280FF2
:1002A00005D100F1080C08FA0CF8C2F8148091F896
:1002B00003C0BCF1480F07D100F1080C4FF0010852
:1002C00008FA0CF8C2F81080401C0828CED35460FD
:1002D000BDE8F08100BFFEE700BFFEE77047000009
:1002E00070B5002100230F22C47804B3154C246894
:1002F00004F4E064C4F5E064210AC1F10403CA40D7
:10030000447804FA03F184781440214309010E4C27
:100310000678A155047804F01F050124AC40057847
:100320006D11AD0005F1E025C5F8004109E0047844
:1003300004F01F050124AC40044D0678761145F801
:10034000264070BD0CED00E000E400E080E100E03C
:1003500002490143024A1160704700000000FA059B
:100360000CED00E07047000029B1064AD269024353
:10037000044BDA6104E0034AD2698243014BDA613B
:10038000704700000010024029B1064A92690243FA
:10039000044B9A6104E0034A92698243014B9A61DB
:1003A000704700000010024030B5002100220024F8
:1003B00000232D4D6D6805F00C0121B1042905D0F5
:1003C000082923D105E0294D056022E0274D05606D
:1003D0001FE0254D6D6805F47012234D6D6805F41E
:1003E0008034022505EB92421CB9214D554305602E
:1003F0000BE01D4D6D6805F400351DB11C4D5543D6
:10040000056002E0194D5543056002E0174D056097
:1004100000BF00BF144D6D6805F0F0010909154DCE
:100420006B5C0568DD4045600F4D6D6805F4E0616B
:10043000090A104D6B5C4568DD4085600A4D6D68AA
:1004400005F46051C90A0B4D6B5C4568DD40C56021
:10045000054D6D6805F44041890B074D6B5CC5681F
:10046000B5FBF3F5056130BD0010024000127A00C3
:1004700000093D000000002010000020704710B56A
:1004800000F002F810BD00000CB5002001900090B3
:100490003348006840F480303149086000BF30487C
:1004A000006800F4003000900198401C0190009812
:1004B00018B90198B0F5A06FF1D12948006800F48F
:1004C000003010B10120009001E000200090009861
:1004D000012843D12348006840F0100021490860FA
:1004E0000846006820F0030008600846006840F0F5
:1004F000020008601A484068194948600846406888
:1005000048600846406840F480604860084640689B
:1005100020F47C1048600846406840F4E8104860C9
:100520000846006840F08070086000BF0C48006812
:1005300000F000700028F9D00948406820F003005E
:10054000074948600846406840F00200486000BF24
:100550000348406800F00C000828F9D10CBD0000E9
:1005600000100240002002407047000010B5134800
:10057000006840F0010011490860084640681049D1
:1005800008400E494860084600680E4908400B497B
:1005900008600846006820F480200860084640682B
:1005A00020F4FE0048604FF41F008860FFF767FFEB
:1005B0004FF000600449086010BD000000100240C8
:1005C0000000FFF8FFFFF6FE08ED00E0F0B50C4676
:1005D000154600220021068C4FF6FE773E40068429
:1005E000028B018C4FF60C7632407E1C06EA031615
:1005F0002E433243104EB0420ED0104EB0420BD0BC
:10060000B0F1804F08D00E4EB04205D00D4EB04232
:1006100002D00D4EB04206D14FF6FD76314044F087
:100620000106314305E04FF6F576314044F001060E
:10063000314302830184F0BD002C014000340140AD
:100640000004004000080040000C0040F0B50C46DB
:100650001546002200210026078C4FF6EF7C07EAA2
:100660000C070784028B018C4FF6FF7707EA04160C
:1006700040F6FF473A404FF6FF7707EA03373A4321
:100680004FF6FF7707EA05273A43114FB8420ED0DD
:10069000104FB8420BD0B0F1804F08D00E4FB84287
:1006A00005D00E4FB84202D00D4FB84206D14FF6DA
:1006B000DF77394046F01007394305E04FF65F77A2
:1006C000394044F01007394302830184F0BD000033
:1006D000002C0140003401400004004000080040AC
:1006E000000C0040F0B50C46154600220021002603
:1006F000078C4FF6FF6C07EA0C070784828B018C8E
:100700004FF6FF7707EA04264FF60C773A404FF68C
:10071000FF7707EA03172F433A43114FB8420ED031
:10072000104FB8420BD0B0F1804F08D00E4FB842F6
:1007300005D00E4FB84202D00D4FB84206D14FF649
:10074000FF57394046F48077394305E04FF2FF57B1
:10075000394044F48077394382830184F0BD00003E
:10076000002C01400034014000040040000800401B
:10077000000C0040F0B50C46154600220021002672
:10078000078C4EF6FF7C07EA0C070784828B018CEE
:100790004FF6FF7707EA043640F6FF473A404FF638
:1007A000FF7707EA05273A434FF6FF7707EA033753
:1007B0003A43114FB8420ED0104FB8420BD0B0F1AF
:1007C000804F08D00E4FB84205D00E4FB84202D02D
:1007D0000D4FB84206D14DF6FF77394046F48057A9
:1007E000394305E047F6FF57394044F48057394311
:1007F00082830184F0BD0000002C014000340140E0
:100800000004004000080040000C004010B5012129
:100810001B4800F060F840B11A488088401C194914
:1008200088800121164800F032F80221144800F0B7
:1008300052F820B31348407878B90021104800F0EE
:100840001BF900200F498880488002210C4800F0E5
:100850000AF901200B4948700DE0094800F038F80A
:10086000084948800021064800F0FDF800200549AD
:100870004870012008700221014800F008F810BDFE
:10088000000C004014000020CA4302827047CA4393
:100890000282704721B1028842F00102028004E026
:1008A00002884FF6FE731A400280704708B5012196
:1008B0000420FFF769FD0820ADF8000004208DF842
:1008C000030069460148FFF77AFC08BD00180140A3
:1008D0000146888E704730B5024600200023002470
:1008E000158A05EA0103958905EA010413B10CB1E3
:1008F000012000E0002030BD70B505460C462448BC
:1009000085420ED0234885420BD0B5F1804F08D0E8
:100910002148854205D02148854202D020488542A1
:1009200000D100E000BF208850B92389A2886188E7
:100930002846FFF74BFEE188284600F09FF825E0A7
:10094000208804280AD12389A28861882846FFF7D5
:100950007DFEE188284600F09AF817E020880828F4
:100960000AD12389A28861882846FFF7BBFEE18867
:10097000284600F099F809E02389A2886188284672
:10098000FFF7F8FEE188284600F097F870BD0000F8
:10099000002C0140003401400004004000080040E9
:1009A000000C00401AB183890B43838102E08389E4
:1009B0008B438381704710B500F040F8FFF776FF56
:1009C00000F002F810BD000000B587B0012108203A
:1009D000FFF7CAFC4FF6FF70ADF814004720ADF8E2
:1009E00010000020ADF81600ADF812008DF81800C8
:1009F00004A9114800F06EF80020ADF80400ADF82D
:100A000006000120ADF808000020ADF80A00ADF89E
:100A10000C0001A90848FFF76FFF03210648FFF704
:100A200033FF012203210448FFF7BCFF01210248E4
:100A3000FFF730FF07B000BD000C004008B54FF4D1
:100A4000E060FFF785FC32208DF8000000208DF873
:100A5000010003208DF8020001208DF80300684694
:100A6000FFF73EFC08BD0A460021018C4FF6FD73DE
:100A7000194011430184704781847047028B4FF6FF
:100A8000F3731A400283028B0A4302837047028B7E
:100A90004FF2FF331A400283028B4FF6FF7303EAD3
:100AA00001231A4302837047828B4FF6F3731A4077
:100AB0008283828B0A4382837047828B4FF2FF339B
:100AC0001A408283828B4FF6FF7303EA01231A4395
:100AD00082837047002202881D4B98420ED01D4B26
:100AE00098420BD0B0F1804F08D01B4B984205D0F4
:100AF0001A4B984202D01A4B984204D14FF68F738A
:100B00001A404B881A43174B984207D0164B98420D
:100B100004D04FF6FF431A40CB881A4302808B88DB
:100B200083850B8803850A4B98420BD0094B98426A
:100B300008D00E4B984205D00D4B984202D00D4B79
:100B4000984201D10B7A038601238382704700000B
:100B5000002C014000340140000400400008004027
:100B6000000C004000100040001400400040014014
:100B7000004401400048014021B1828942F4005202
:100B8000828104E082894DF6FF731A4082817047AA
:100B900000B585B001210420FFF7F6FB0121880391
:100BA000FFF7F2FB4FF40070ADF8100018208DF83D
:100BB000130003208DF8120004A91348FFF7FFFA71
:100BC0004FF48060ADF8100004208DF8130004A9E4
:100BD0000D48FFF7F4FA4FF4E13000900020ADF833
:100BE0000400ADF80600ADF80800ADF80C000C20CC
:100BF000ADF80A006946054800F018F801210348DD
:100C0000FFF7BAFF05B000BD000801400038014001
:100C100002460020B1F5007F00D100BF13880B40D1
:100C20000BB1012000E00020704700002DE9F047E3
:100C300086B005460E460024A24600BFA146002706
:100C4000B08900B100BF2F462C8A4CF6FF700440DB
:100C5000F08804432C82AC894EF6F3100440B0882F
:100C600031890843718908430443AC81AC8A4FF64B
:100C7000FF400440B0890443AC8201A8FFF794FB15
:100C80001F48874202D1DDF810A001E0DDF80CA07A
:100C9000A88900F4004040B10AEBCA0000EB0A103A
:100CA00031684900B0FBF1F807E00AEBCA0000EB3D
:100CB0000A1031688900B0FBF1F86420B8FBF0F04D
:100CC00004012009642101FB1089A88900F4004077
:100CD00040B1322000EBC900B0FBF1F000F007009A
:100CE000044308E0322000EB09106421B0FBF1F06E
:100CF00000F00F0004432C8106B0BDE8F08700002F
:100D000000380140C1F308028280704700BFFEE74F
:100D10000FB4054B10B503A9044A029800F018F867
:100D200010BC5DF814FB0000A50E00081C0000209C
:100D300002E008C8121F08C1002AFAD170477047A4
:100D4000002001E001C1121F002AFBD17047000002
:100D50002DE9FF4F89B09B460446002506E0252873
:100D60000BD05A460B999047641C6D1C20780028C4
:100D7000F5D10DB02846BDE8F08F0027B846012216
:100D8000474900E0074314F8013F203B02FA03F013
:100D90000842F7D120782E2819D114F8010F47F016
:100DA00004072A280ED06FF02F022078A0F130011E
:100DB00009290CD808EB880102EB410100EB01087E
:100DC000641CF2E70A98641C50F8048B0A9020789F
:100DD0000028CED0642808D0692806D075281ED0F7
:100DE0005A460B9990476D1C58E00A994FF00A0932
:100DF00001C90A91002802DA40422D2102E039059A
:100E000004D52B218DF82010012103E0F90704D02F
:100E10002021F7E78A4608AE0DE00021FAE70A999B
:100E20004FF00A0901C90A91F7E74946FFF79CF913
:100E3000303106F8011D0028F7D1ADEB060000F1B6
:100E40002009780701D44FF00108C84502DDA8EB5E
:100E5000090000E000208046002706E008A85A4666
:100E6000C05D0B9990476D1C7F1C5745F6DB04E075
:100E700030205A460B9990476D1CB8F10001A8F13B
:100E80000108F5DC05E016F8010B5A460B9990476E
:100E90006D1CB9F10001A9F10109F4DC641C65E7DE
:100EA0000928010070B504460D46E1B20548FFF778
:100EB00029FF00BF80210348FFF7AAFE0028F9D0D0
:100EC000204670BD0038014024E0134DFFF760FE5E
:100ED000FFF771FD11A0FFF71BFF14A0FFF718FF2C
:100EE00017E019480078A0B917484088401C1649F7
:100EF000898800EB0144B4FBF5F005FB1046B4FB18
:100F0000F5F73246394611A0FFF702FF00200E49DF
:100F10000870E6E7D9E7000040420F00CAE4C8EBDA
:100F2000B2B6BBF1CAB5D1E90D0A00000D0AB0B4E2
:100F3000CFC24BA3ACB2E2CAD44BB0B4CFC2B5C49B
:100F4000CAB1BCE40D0A0000140000200D0AB2E290
:100F5000B5C3B8DFB5E7C6BDC2F6BFEDCAB1BCE4E4
:100F6000A3BA25642E256420730D0A008C0F000897
:100F70000000002020000000300D0008AC0F000829
:100F80002000002000040000400D000800000000C8
:100F9000010203040102030406070809020406080B
:0C0FA00000000000000000000000000045
:0400000508000131BD
:00000001FF
