:020000040800F2
:100000001804002045010008ED090008CD03000890
:10001000E90900088D010008C50D00080000000076
:10002000000000000000000000000000050B0008B8
:100030009101000800000000EF090008F10B000822
:100040005F0100085F0100085F0100085F01000810
:100050005F0100085F0100085F0100085F01000800
:100060005F0100085F0100085F0100085F010008F0
:100070005F0100085F0100085F0100085F010008E0
:100080005F0100085F0100085F0100085F010008D0
:100090005F0100085F0100085F0100085F010008C0
:1000A0005F0100085F0100085F0100085F010008B0
:1000B0005F0100085F0100085F0100085F010008A0
:1000C0005F0100085F0100085F0100085F01000890
:1000D0005F0100085F0100085F0100085F01000880
:1000E0005F0100085F0100085F0100085F01000870
:1000F0005F0100085F0100085F0100085F01000860
:100100005F0100085F0100085F0100085F0100084F
:100110005F0100085F0100085F0100085F0100083F
:100120005F0100085F0100085F0100085F0100082F
:10013000DFF80CD000F018F800480047150E000852
:10014000180400200648804706480047FEE7FEE7FF
:10015000FEE7FEE7FEE7FEE7FEE7FEE7FEE7FEE777
:10016000F50B000831010008064C074D06E0E06879
:1001700040F0010394E8070098471034AC42F6D3EE
:10018000FFF7DAFF280E0008480E000800BFFEE760
:100190007047000051B18200A2F1C042126842F0E3
:1001A00001038200A2F1C042136009E08200A2F1C3
:1001B000C0421268034B1A408300A3F1C0431A6087
:1001C00070470000FEFF0F00D0E901121143C26822
:1001D0001143026911434269114382691143C269A3
:1001E0001143026A1143426A1143826A1143C26A8F
:1001F0001143026B114302689200A2F1C0421160E8
:10020000816808290BD101688900A1F1C041096802
:1002100041F0400201688900A1F1C0410A60416BD0
:100220000968426B526841EA0211426B926841EAE6
:100230000221426B928941EA0241426B128A41EAF1
:100240000251426B127D41EA0261426B9269114395
:100250000268521C9200A2F1C0421160C16AB1F55D
:10026000804F1BD1816B0968826B526841EA021191
:10027000826B926841EA0221826B128A41EA025142
:10028000826B127D41EA0261826B926911430268BE
:100290009200A2F1C042C2F8041107E06FF0704270
:1002A00001688900A1F1C041C1F8042170472DE91E
:1002B000F0410246002500260020002300240027EC
:1002C00091F803C00CF00F0591F803C00CF0100C6E
:1002D000BCF1000F03D091F802C04CEA050591F87B
:1002E00000C0BCF1000F31D0146800202BE04FF0AB
:1002F000010C0CFA00F3B1F800C00CEA03069E42B0
:1003000020D183004FF00F0C0CFA03F7BC4305FA21
:1003100003FC4CEA040491F803C0BCF1280F06D199
:100320004FF0010C0CFA00FCC2F814C00AE091F87E
:1003300003C0BCF1480F05D14FF0010C0CFA00FCD2
:10034000C2F810C0401C0828D1D31460B1F800C016
:10035000BCF1FF0F34DD546800202EE000F1080CE2
:100360004FF0010808FA0CF3B1F800C00CEA0306DC
:100370009E4221D183004FF00F0C0CFA03F7BC43CF
:1003800005FA03FC4CEA040491F803C0BCF1280F01
:1003900005D100F1080C08FA0CF8C2F8148091F8A5
:1003A00003C0BCF1480F07D100F1080C4FF0010861
:1003B00008FA0CF8C2F81080401C0828CED354600C
:1003C000BDE8F081416170470161704700BFFEE701
:1003D00010B504462CB14FF480510548FFF7F2FFE9
:1003E00004E04FF480510248FFF7EEFF10BD00001B
:1003F0000014014001B502E00098401E00900098F2
:100400000028F9D108BD10B55023962200210846D6
:1004100000F087F92C2000F0DDFA002404E04FF40E
:10042000784000F0DBFA641C42F6E0608442F6D3C8
:1004300010BD00B597B00121080200F0D9FA0120E3
:1004400001900420039000200290049005900690F3
:100450004FF08050079000200890099008200A90E3
:1004600010200B9000200C900D900E900F9010908B
:100470004FF480501190002012901390149001A816
:100480001590169008A8FFF79FFE01210020FFF7A6
:1004900081FE17B000BD000008B50121602000F00A
:1004A000B7FA4FF48050ADF8000010208DF803002B
:1004B00003208DF8020069469148FFF7F8FE0220FC
:1004C000ADF8000010208DF8030003208DF8020025
:1004D00069468C48FFF7EBFE8020ADF8000018203D
:1004E0008DF8030003208DF8020069468448FFF769
:1004F000DEFE1020ADF8000018208DF80300032068
:100500008DF8020069467E48FFF7D1FE2020ADF845
:10051000000018208DF8030003208DF802006946C2
:100520007748FFF7C4FE4FF40060ADF800001820D4
:100530008DF8030003208DF8020069467048FFF72C
:10054000B6FE4FF48040ADF8000018208DF803008F
:1005500003208DF8020069466948FFF7A8FE4FF4B2
:100560000040ADF8000018208DF8030003208DF83E
:10057000020069466248FFF79AFE0120ADF80000CC
:1005800018208DF8030003208DF8020069465C48AE
:10059000FFF78DFE0220ADF8000018208DF8030053
:1005A00003208DF8020069465548FFF780FE802041
:1005B000ADF8000018208DF8030003208DF802002C
:1005C00069465048FFF773FE4FF48070ADF80000A5
:1005D00018208DF8030003208DF802006946494871
:1005E000FFF765FE4FF40070ADF8000018208DF89D
:1005F000030003208DF8020069464248FFF757FECA
:100600004FF48060ADF8000018208DF8030003203F
:100610008DF8020069463B48FFF749FE4FF4006041
:10062000ADF8000018208DF8030003208DF80200BB
:1006300069463448FFF73BFE4FF48050ADF80000A8
:1006400018208DF8030003208DF8020069462D481C
:10065000FFF72DFE4FF40050ADF8000018208DF884
:10066000030003208DF8020069462648FFF71FFEAD
:100670004FF48040ADF8000018208DF803000320EF
:100680008DF8020069461F48FFF711FE4FF4004045
:10069000ADF8000018208DF8030003208DF802004B
:1006A00069461848FFF703FE4FF48070ADF800006C
:1006B00018208DF8030003208DF8020069461048C9
:1006C000FFF7F5FD4FF40070ADF8000018208DF82D
:1006D000030003208DF8020069460948FFF7E7FD93
:1006E0004FF48060ADF8000018208DF8030003205F
:1006F0008DF8020069460248FFF7D9FD08BD0000E9
:10070000001401400018014010B5FFF7C5FEFFF7C7
:1007100090FE0120FFF75CFE00F048F900F02EF893
:1007200010BD2DE9F04104460D4616461F462A200D
:1007300000F050F9200A00F051F9E0B200F04EF953
:10074000A119C1F3072000F049F9A119C8B200F0BE
:1007500045F92B2000F03EF9280A00F03FF9E8B2F5
:1007600000F03CF9E919C1F3072000F037F9E91965
:10077000C8B200F033F9BDE8F081000010B5CF2019
:1007800000F028F9002000F029F9812000F026F976
:10079000302000F023F9ED2000F01CF9642000F077
:1007A0001DF9032000F01AF9122000F017F981203A
:1007B00000F014F9E82000F00DF9852000F00EF9A2
:1007C000102000F00BF9782000F008F9CB2000F0A1
:1007D00001F9392000F002F92C2000F0FFF8002088
:1007E00000F0FCF8342000F0F9F8022000F0F6F8F0
:1007F000F72000F0EFF8202000F0F0F8EA2000F0F9
:10080000E9F8002000F0EAF8002000F0E7F8B12055
:1008100000F0E0F8002000F0E1F81B2000F0DEF826
:10082000B62000F0D7F80A2000F0D8F8A22000F097
:10083000D5F8C02000F0CEF8352000F0CFF8C12068
:1008400000F0C8F8112000F0C9F8C52000F0C2F887
:10085000452000F0C3F8452000F0C0F8C72000F0A4
:10086000B9F8A22000F0BAF8F22000F0B3F80020A6
:1008700000F0B4F8262000F0ADF8012000F0AEF84A
:10088000E02000F0A7F80F2000F0A8F8262000F0E4
:10089000A5F8242000F0A2F80B2000F09FF80E200D
:1008A00000F09CF8092000F099F8542000F096F828
:1008B000A82000F093F8462000F090F80C2000F0FB
:1008C0008DF8172000F08AF8092000F087F80F2033
:1008D00000F084F8072000F081F8002000F07EF896
:1008E000E12000F077F8002000F078F8192000F0FF
:1008F00075F81B2000F072F8042000F06FF810204B
:1009000000F06CF8072000F069F82A2000F066F883
:10091000472000F063F8392000F060F8032000F071
:100920005DF8062000F05AF8062000F057F8302055
:1009300000F054F8382000F051F80F2000F04EF885
:10094000362000F047F8C82000F048F82A2000F0D0
:1009500041F8002000F042F8002000F03FF80020AD
:1009600000F03CF8EF2000F039F82B2000F032F8CE
:10097000002000F033F8002000F030F8012000F0F3
:100980002DF83F2000F02AF83A2000F023F85520F7
:1009900000F024F8112000F01DF80348FFF72AFDAD
:1009A000292000F017F810BDFCBF020010B502218D
:1009B0000748FFF707FD40F6FF20FFF71BFD022168
:1009C0000348FFF701FD40F6FF20FFF713FD10BDC0
:1009D000001801404FF0C04108807047014908806D
:1009E000704700000000026000BFFEE770477047DC
:1009F00029B1064A52690243044B5A6104E0034A92
:100A000052698243014B5A61704700000010024056
:100A100029B1064A92690243044B9A6104E0034AF1
:100A200092698243014B9A617047000000100240B6
:100A300030B500210022002400232D4D6D6805F003
:100A40000C0121B1042905D0082923D105E0294D45
:100A5000056022E0274D05601FE0254D6D6805F417
:100A60007012234D6D6805F48034022505EB924227
:100A70001CB9214D554305600BE01D4D6D6805F413
:100A800000351DB11C4D5543056002E0194D55431D
:100A9000056002E0174D056000BF00BF144D6D6892
:100AA00005F0F0010909154D6B5C0568DD404560F6
:100AB0000F4D6D6805F4E061090A104D6B5C4568E7
:100AC000DD4085600A4D6D6805F46051C90A0B4D23
:100AD0006B5C4568DD40C560054D6D6805F44041BF
:100AE000890B074D6B5CC568B5FBF3F5056130BD3F
:100AF0000010024000127A0000093D0000000020B2
:100B000010000020704710B500F002F810BD000082
:100B10000CB50020019000903348006840F480300C
:100B20003149086000BF3048006800F40030009090
:100B30000198401C0190009818B90198B0F5A06F79
:100B4000F1D12948006800F4003010B10120009074
:100B500001E0002000900098012843D1234800685C
:100B600040F01000214908600846006820F00300AA
:100B700008600846006840F0020008601A484068B3
:100B8000194948600846406848600846406840F493
:100B9000806048600846406820F47C104860084641
:100BA000406840F4E81048600846006840F08070F3
:100BB000086000BF0C48006800F000700028F9D001
:100BC0000948406820F0030007494860084640682B
:100BD00040F00200486000BF0348406800F00C008D
:100BE0000828F9D10CBD000000100240002002408E
:100BF0007047000010B51348006840F0010011492B
:100C0000086008464068104908400E494860084698
:100C100000680E4908400B4908600846006820F447
:100C2000802008600846406820F4FE0048604FF4C9
:100C30001F008860FFF767FF4FF0006004490860FD
:100C400010BD0000001002400000FFF8FFFFF6FE9C
:100C500008ED00E021B1828942F40052828104E073
:100C600082894DF6FF731A408281704700B585B0C6
:100C700001210420FFF7CCFE01218803FFF7C8FE05
:100C80004FF40070ADF8100018208DF81300032009
:100C90008DF8120004A91348FFF709FB4FF4806098
:100CA000ADF8100004208DF8130004A90D48FFF7DB
:100CB000FEFA4FF4E13000900020ADF80400ADF8EA
:100CC0000600ADF80800ADF80C000C20ADF80A00E5
:100CD0006946054800F00AF801210348FFF7BAFF0A
:100CE00005B000BD00080140003801402DE9F04783
:100CF00086B005460E460024A24600BFA146002746
:100D0000B08900B100BF2F462C8A4CF6FF7004401A
:100D1000F08804432C82AC894EF6F3100440B0886E
:100D200031890843718908430443AC81AC8A4FF68A
:100D3000FF400440B0890443AC8201A8FFF778FE6D
:100D40001F48874202D1DDF810A001E0DDF80CA0B9
:100D5000A88900F4004040B10AEBCA0000EB0A1079
:100D600031684900B0FBF1F807E00AEBCA0000EB7C
:100D70000A1031688900B0FBF1F86420B8FBF0F08C
:100D800004012009642101FB1089A88900F40040B6
:100D900040B1322000EBC900B0FBF1F000F00700D9
:100DA000044308E0322000EB09106421B0FBF1F0AD
:100DB00000F00F0004432C8106B0BDE8F08700006E
:100DC0000038014000BFFEE702E008C8121F08C15A
:100DD000002AFAD170477047002001E001C1121FBC
:100DE000002AFBD17047000008B501210420FFF75D
:100DF0000FFE4FF48050ADF8000010208DF8030076
:100E000003208DF8020069460148FFF750FA08BD3B
:100E100000080140FFF778FCFFF7E6FFFFF726FF29
:100E2000FFF7F1FA00BFFEE7480E000800000020BF
:100E300014000000C80D00085C0E0008140000201B
:100E400004040000D80D00080000000001020304A3
:0C0E50000102030406070809020406085A
:0400000508000131BD
:00000001FF
